{
  "_format": "hh-sol-artifact-1",
  "contractName": "SalvusEscrow",
  "sourceName": "contracts/SalvusEscrow.sol",
  "abi": [
    {
      "inputs": [
        {
          "internalType": "address",
          "name": "_usdcToken",
          "type": "address"
        },
        {
          "internalType": "address",
          "name": "_payoutWallet",
          "type": "address"
        }
      ],
      "stateMutability": "nonpayable",
      "type": "constructor"
    },
    {
      "anonymous": false,
      "inputs": [
        {
          "indexed": true,
          "internalType": "address",
          "name": "beneficiary",
          "type": "address"
        },
        {
          "indexed": false,
          "internalType": "uint256",
          "name": "allocation",
          "type": "uint256"
        }
      ],
      "name": "AllocationSet",
      "type": "event"
    },
    {
      "anonymous": false,
      "inputs": [
        {
          "indexed": true,
          "internalType": "address",
          "name": "donor",
          "type": "address"
        },
        {
          "indexed": false,
          "internalType": "uint256",
          "name": "amount",
          "type": "uint256"
        }
      ],
      "name": "DonationReceived",
      "type": "event"
    },
    {
      "anonymous": false,
      "inputs": [
        {
          "indexed": true,
          "internalType": "address",
          "name": "beneficiary",
          "type": "address"
        },
        {
          "indexed": true,
          "internalType": "address",
          "name": "payoutWallet",
          "type": "address"
        },
        {
          "indexed": false,
          "internalType": "uint256",
          "name": "amount",
          "type": "uint256"
        }
      ],
      "name": "PaymentReleased",
      "type": "event"
    },
    {
      "inputs": [
        {
          "internalType": "address",
          "name": "",
          "type": "address"
        }
      ],
      "name": "beneficiaries",
      "outputs": [
        {
          "internalType": "uint256",
          "name": "totalAllocation",
          "type": "uint256"
        },
        {
          "internalType": "uint256",
          "name": "totalSpent",
          "type": "uint256"
        }
      ],
      "stateMutability": "view",
      "type": "function"
    },
    {
      "inputs": [
        {
          "internalType": "uint256",
          "name": "_amount",
          "type": "uint256"
        }
      ],
      "name": "donate",
      "outputs": [],
      "stateMutability": "nonpayable",
      "type": "function"
    },
    {
      "inputs": [
        {
          "internalType": "address",
          "name": "_beneficiary",
          "type": "address"
        }
      ],
      "name": "getRemainingAllocation",
      "outputs": [
        {
          "internalType": "uint256",
          "name": "",
          "type": "uint256"
        }
      ],
      "stateMutability": "view",
      "type": "function"
    },
    {
      "inputs": [],
      "name": "owner",
      "outputs": [
        {
          "internalType": "address",
          "name": "",
          "type": "address"
        }
      ],
      "stateMutability": "view",
      "type": "function"
    },
    {
      "inputs": [],
      "name": "payoutWallet",
      "outputs": [
        {
          "internalType": "address",
          "name": "",
          "type": "address"
        }
      ],
      "stateMutability": "view",
      "type": "function"
    },
    {
      "inputs": [
        {
          "internalType": "uint256",
          "name": "_amount",
          "type": "uint256"
        }
      ],
      "name": "requestPayment",
      "outputs": [],
      "stateMutability": "nonpayable",
      "type": "function"
    },
    {
      "inputs": [
        {
          "internalType": "address",
          "name": "_beneficiary",
          "type": "address"
        },
        {
          "internalType": "uint256",
          "name": "_allocation",
          "type": "uint256"
        }
      ],
      "name": "setAllocation",
      "outputs": [],
      "stateMutability": "nonpayable",
      "type": "function"
    },
    {
      "inputs": [],
      "name": "usdcToken",
      "outputs": [
        {
          "internalType": "contract IERC20",
          "name": "",
          "type": "address"
        }
      ],
      "stateMutability": "view",
      "type": "function"
    }
  ],
  "bytecode": "0x60e06040523480156200001157600080fd5b506040516200152838038062001528833981810160405281019062000037919062000229565b600073ffffffffffffffffffffffffffffffffffffffff168273ffffffffffffffffffffffffffffffffffffffff1603620000a9576040517f08c379a0000000000000000000000000000000000000000000000000000000008152600401620000a090620002f7565b60405180910390fd5b600073ffffffffffffffffffffffffffffffffffffffff168173ffffffffffffffffffffffffffffffffffffffff16036200011b576040517f08c379a000000000000000000000000000000000000000000000000000000000815260040162000112906200038f565b60405180910390fd5b3373ffffffffffffffffffffffffffffffffffffffff1660a08173ffffffffffffffffffffffffffffffffffffffff16815250508173ffffffffffffffffffffffffffffffffffffffff1660808173ffffffffffffffffffffffffffffffffffffffff16815250508073ffffffffffffffffffffffffffffffffffffffff1660c08173ffffffffffffffffffffffffffffffffffffffff16815250505050620003b1565b600080fd5b600073ffffffffffffffffffffffffffffffffffffffff82169050919050565b6000620001f182620001c4565b9050919050565b6200020381620001e4565b81146200020f57600080fd5b50565b6000815190506200022381620001f8565b92915050565b60008060408385031215620002435762000242620001bf565b5b6000620002538582860162000212565b9250506020620002668582860162000212565b9150509250929050565b600082825260208201905092915050565b7f53616c767573457363726f773a20496e76616c696420746f6b656e206164647260008201527f6573730000000000000000000000000000000000000000000000000000000000602082015250565b6000620002df60238362000270565b9150620002ec8262000281565b604082019050919050565b600060208201905081810360008301526200031281620002d0565b9050919050565b7f53616c767573457363726f773a20496e76616c6964207061796f75742077616c60008201527f6c65740000000000000000000000000000000000000000000000000000000000602082015250565b60006200037760238362000270565b9150620003848262000319565b604082019050919050565b60006020820190508181036000830152620003aa8162000368565b9050919050565b60805160a05160c05161111d6200040b600039600081816103fb015281816104bf015261054a01526000818161056e01526105920152600081816101c2015281816102c3015281816103bf0152610804015261111d6000f3fe608060405234801561001057600080fd5b50600436106100885760003560e01c80638da5cb5b1161005b5780638da5cb5b146101165780639076c16614610134578063b236312814610150578063f14faf6f1461018057610088565b8063015677391461008d57806311eac855146100be5780635de988ab146100dc5780638488bb4e146100f8575b600080fd5b6100a760048036038101906100a29190610999565b61019c565b6040516100b59291906109df565b60405180910390f35b6100c66101c0565b6040516100d39190610a67565b60405180910390f35b6100f660048036038101906100f19190610aae565b6101e4565b005b610100610548565b60405161010d9190610aea565b60405180910390f35b61011e61056c565b60405161012b9190610aea565b60405180910390f35b61014e60048036038101906101499190610b05565b610590565b005b61016a60048036038101906101659190610999565b610725565b6040516101779190610b45565b60405180910390f35b61019a60048036038101906101959190610aae565b6107bd565b005b60006020528060005260406000206000915090508060000154908060010154905082565b7f000000000000000000000000000000000000000000000000000000000000000081565b60008111610227576040517f08c379a000000000000000000000000000000000000000000000000000000000815260040161021e90610bbd565b60405180910390fd5b60008060003373ffffffffffffffffffffffffffffffffffffffff1673ffffffffffffffffffffffffffffffffffffffff1681526020019081526020016000209050806000015482826001015461027e9190610c0c565b11156102bf576040517f08c379a00000000000000000000000000000000000000000000000000000000081526004016102b690610cb2565b60405180910390fd5b60007f000000000000000000000000000000000000000000000000000000000000000073ffffffffffffffffffffffffffffffffffffffff166370a08231306040518263ffffffff1660e01b815260040161031a9190610aea565b602060405180830381865afa158015610337573d6000803e3d6000fd5b505050506040513d601f19601f8201168201806040525081019061035b9190610ce7565b9050828110156103a0576040517f08c379a000000000000000000000000000000000000000000000000000000000815260040161039790610d86565b60405180910390fd5b828260010160008282546103b49190610c0c565b9250508190555060007f000000000000000000000000000000000000000000000000000000000000000073ffffffffffffffffffffffffffffffffffffffff1663a9059cbb7f0000000000000000000000000000000000000000000000000000000000000000866040518363ffffffff1660e01b8152600401610438929190610da6565b6020604051808303816000875af1158015610457573d6000803e3d6000fd5b505050506040513d601f19601f8201168201806040525081019061047b9190610e07565b9050806104bd576040517f08c379a00000000000000000000000000000000000000000000000000000000081526004016104b490610ea6565b60405180910390fd5b7f000000000000000000000000000000000000000000000000000000000000000073ffffffffffffffffffffffffffffffffffffffff163373ffffffffffffffffffffffffffffffffffffffff167f8ac5b3c2902b21b6bbb4d99ec195e28a242cb6a1777804db10b84d91e20064298660405161053a9190610b45565b60405180910390a350505050565b7f000000000000000000000000000000000000000000000000000000000000000081565b7f000000000000000000000000000000000000000000000000000000000000000081565b7f000000000000000000000000000000000000000000000000000000000000000073ffffffffffffffffffffffffffffffffffffffff163373ffffffffffffffffffffffffffffffffffffffff161461061e576040517f08c379a000000000000000000000000000000000000000000000000000000000815260040161061590610f38565b60405180910390fd5b600073ffffffffffffffffffffffffffffffffffffffff168273ffffffffffffffffffffffffffffffffffffffff160361068d576040517f08c379a000000000000000000000000000000000000000000000000000000000815260040161068490610fca565b60405180910390fd5b806000808473ffffffffffffffffffffffffffffffffffffffff1673ffffffffffffffffffffffffffffffffffffffff168152602001908152602001600020600001819055508173ffffffffffffffffffffffffffffffffffffffff167fedfc909d0ab2a1625b7911d925efbd8200cdd99d4c7ba44e720328b17879f0b3826040516107199190610b45565b60405180910390a25050565b6000806000808473ffffffffffffffffffffffffffffffffffffffff1673ffffffffffffffffffffffffffffffffffffffff16815260200190815260200160002060405180604001604052908160008201548152602001600182015481525050905080600001518160200151106107a05760009150506107b8565b806020015181600001516107b49190610fea565b9150505b919050565b60008111610800576040517f08c379a00000000000000000000000000000000000000000000000000000000081526004016107f790610bbd565b60405180910390fd5b60007f000000000000000000000000000000000000000000000000000000000000000073ffffffffffffffffffffffffffffffffffffffff166323b872dd3330856040518463ffffffff1660e01b815260040161085f9392919061101e565b6020604051808303816000875af115801561087e573d6000803e3d6000fd5b505050506040513d601f19601f820116820180604052508101906108a29190610e07565b9050806108e4576040517f08c379a00000000000000000000000000000000000000000000000000000000081526004016108db906110c7565b60405180910390fd5b3373ffffffffffffffffffffffffffffffffffffffff167f264f630d9efa0d07053a31163641d9fcc0adafc9d9e76f1c37c2ce3a558d2c528360405161092a9190610b45565b60405180910390a25050565b600080fd5b600073ffffffffffffffffffffffffffffffffffffffff82169050919050565b60006109668261093b565b9050919050565b6109768161095b565b811461098157600080fd5b50565b6000813590506109938161096d565b92915050565b6000602082840312156109af576109ae610936565b5b60006109bd84828501610984565b91505092915050565b6000819050919050565b6109d9816109c6565b82525050565b60006040820190506109f460008301856109d0565b610a0160208301846109d0565b9392505050565b6000819050919050565b6000610a2d610a28610a238461093b565b610a08565b61093b565b9050919050565b6000610a3f82610a12565b9050919050565b6000610a5182610a34565b9050919050565b610a6181610a46565b82525050565b6000602082019050610a7c6000830184610a58565b92915050565b610a8b816109c6565b8114610a9657600080fd5b50565b600081359050610aa881610a82565b92915050565b600060208284031215610ac457610ac3610936565b5b6000610ad284828501610a99565b91505092915050565b610ae48161095b565b82525050565b6000602082019050610aff6000830184610adb565b92915050565b60008060408385031215610b1c57610b1b610936565b5b6000610b2a85828601610984565b9250506020610b3b85828601610a99565b9150509250929050565b6000602082019050610b5a60008301846109d0565b92915050565b600082825260208201905092915050565b7f53616c767573457363726f773a20416d6f756e74206d757374206265203e2030600082015250565b6000610ba7602083610b60565b9150610bb282610b71565b602082019050919050565b60006020820190508181036000830152610bd681610b9a565b9050919050565b7f4e487b7100000000000000000000000000000000000000000000000000000000600052601160045260246000fd5b6000610c17826109c6565b9150610c22836109c6565b9250828201905080821115610c3a57610c39610bdd565b5b92915050565b7f53616c767573457363726f773a20416c6c6f636174696f6e206c696d6974206560008201527f7863656564656400000000000000000000000000000000000000000000000000602082015250565b6000610c9c602783610b60565b9150610ca782610c40565b604082019050919050565b60006020820190508181036000830152610ccb81610c8f565b9050919050565b600081519050610ce181610a82565b92915050565b600060208284031215610cfd57610cfc610936565b5b6000610d0b84828501610cd2565b91505092915050565b7f53616c767573457363726f773a20496e73756666696369656e7420636f6e747260008201527f6163742062616c616e6365000000000000000000000000000000000000000000602082015250565b6000610d70602b83610b60565b9150610d7b82610d14565b604082019050919050565b60006020820190508181036000830152610d9f81610d63565b9050919050565b6000604082019050610dbb6000830185610adb565b610dc860208301846109d0565b9392505050565b60008115159050919050565b610de481610dcf565b8114610def57600080fd5b50565b600081519050610e0181610ddb565b92915050565b600060208284031215610e1d57610e1c610936565b5b6000610e2b84828501610df2565b91505092915050565b7f53616c767573457363726f773a205061796d656e74207472616e73666572206660008201527f61696c6564000000000000000000000000000000000000000000000000000000602082015250565b6000610e90602583610b60565b9150610e9b82610e34565b604082019050919050565b60006020820190508181036000830152610ebf81610e83565b9050919050565b7f53616c767573457363726f773a2043616c6c6572206973206e6f74207468652060008201527f6f776e6572000000000000000000000000000000000000000000000000000000602082015250565b6000610f22602583610b60565b9150610f2d82610ec6565b604082019050919050565b60006020820190508181036000830152610f5181610f15565b9050919050565b7f53616c767573457363726f773a20496e76616c69642062656e6566696369617260008201527f7920616464726573730000000000000000000000000000000000000000000000602082015250565b6000610fb4602983610b60565b9150610fbf82610f58565b604082019050919050565b60006020820190508181036000830152610fe381610fa7565b9050919050565b6000610ff5826109c6565b9150611000836109c6565b925082820390508181111561101857611017610bdd565b5b92915050565b60006060820190506110336000830186610adb565b6110406020830185610adb565b61104d60408301846109d0565b949350505050565b7f53616c767573457363726f773a20446f6e6174696f6e207472616e736665722060008201527f6661696c65640000000000000000000000000000000000000000000000000000602082015250565b60006110b1602683610b60565b91506110bc82611055565b604082019050919050565b600060208201905081810360008301526110e0816110a4565b905091905056fea26469706673582212208eead77a12e374d9550e0cb129b6dab54c3d14db01150165cb527e10ed0cd90f64736f6c63430008140033",
  "linkReferences": {},
  "deployedLinkReferences": {}
}